:020000040800F2
:1000000070060020450200084D0200084F0200085B
:1000100051020008530200085502000800000000C9
:10002000000000000000000000000000570200086F
:1000300059020008000000005B0200085D02000891
:100040005F0200085F0200085F0200085F0200080C
:100050005F0200085F0200085F0200080103000859
:100060005F0200085F0200085F0200085F020008EC
:100070005F0200085F0200085F0200085F020008DC
:100080005F0200085F0200085F0200080000000035
:100090000000000000000000000000005F020008F7
:1000A0005F0200085F0200085F0200085F020008AC
:1000B0005F0200085F0200085F0200085F0200089C
:1000C0005F0200085F0200085F0200085F0200088C
:1000D0005F0200085F0200085F02000800000000E5
:1000E0005F0200085F0200085F02000800000000D5
:1000F0000000000000000000000000005F02000897
:10010000000000005F0200085F0200085F020008B4
:1001100000000000000000000000000000000000DF
:100120005F0200085F0200085F0200085F0200082B
:100130005F02000800000000000000000000000056
:100140000000000000000000000000005F02000846
:100150005F0200085F0200085F0200085F020008FB
:100160005F0200085F0200080000000000000000BD
:10017000000000000000000000000000000000007F
:10018000000000005F020008000000000000000006
:100190005F02000800F002F800F044F814A696E8A8
:1001A000000CB244B344DA4501D100F03BF8BAE8A0
:1001B0000F000FA696E83000A5EB040504EB060738
:1001C000AAEB0704A7F101074FEA15154FEA34140B
:1001D000A4F10104AC4201D300F024F813F0010FA4
:1001E00018BFFB1A43F0010300F001F8DBE71847E2
:1001F000840F0000940F00007047000000230024CB
:1002000000250026103A28BF78C1FBD8520728BF26
:1002100030C148BF0B6070471FB500F07FFF1FBDA6
:1002200010B510BD00F031F81146FFF7F5FF00F0F2
:10023000E3F900F04FF803B4FFF7F2FF03BC00F05E
:1002400057F800000948804709480047FEE7FEE7E5
:10025000FEE7FEE7FEE7FEE7FEE7FEE7FEE7FEE776
:1002600004480549054A064B704700004D04000844
:100270009501000870000020700600207002002028
:1002800070020020704770477047754600F02CF8E8
:10029000AE4605006946534620F00700854618B073
:1002A00020B5FFF7DDFFBDE820404FF000064FF01E
:1002B00000074FF000084FF0000BAC46ACE8C00957
:1002C000ACE8C009ACE8C009ACE8C00921F00701FE
:1002D0008D46704710B50446AFF300802046BDE858
:1002E0001040FFF7A8BF0000004870470000002042
:1002F00001491820ABBEFEE726000200704700004F
:1003000080B543F61440C4F201000068800700285D
:100310004FD5FFE743F61441C4F20101086840F0ED
:10032000020008601020C4F2020000688007002864
:100330000CD5FFE72421C4F20001002008604FF033
:100340008041086840F00100086031E04FF08041D2
:10035000086820F0010008602420C4F20000016851
:1003600040F26800C2F200000160006800F0C5FDC4
:1003700041EC100B9FED101B53EC112B51EC100BAB
:1003800000F0CEFD41EC100B51EC100B9FED0C0B6F
:1003900053EC102B00F026FC41EC100B51EC100B31
:1003A00000F07CFD40F26401C2F200010860FFE74A
:1003B000FFE780BD00BF00BF006F8104C58FA13F74
:1003C000000000000000004043F63001C4F20201CA
:1003D000086840F001000860086840F0020008600A
:1003E0000022C4F20202106840F0010010600421F3
:1003F000C4F20201086820F0010008600821C4F27C
:100400000201086840F0030008601068106010687E
:100410001060106840F48040106040F20041C4F267
:100420000201086840F004000860106840F4807021
:100430001060106840F480601060106840F48050D4
:100440001060086820F00300086070474EF688517D
:10045000CEF20001086840F47000086070470000A8
:1004600043F64001C4F20201086840F00100086050
:100470002821C4F20001532008602C21C4F200019D
:100480004FF0FF3008602421C4F200010020086012
:100490004FF08041086840F0040008607047000099
:1004A000FFE744F20040C4F2000000688006002824
:1004B00001D4FFE7F5E744F20440C4F2000000680D
:1004C000C0B2704781B08DF80300FFE744F20040EE
:1004D000C4F2000000680006002801D4FFE7F5E739
:1004E0009DF8030044F20441C4F20001086001B029
:1004F0007047000080B582B00190FFE70198007856
:1005000038B1FFE70198411C01910078FFF7DAFF4D
:10051000F4E702B080BD000081B08DF803009DF9C2
:10052000030000280ED4FFE79DF9031001F01F021D
:10053000012090404A094EF20011CEF2000141F82C
:100540002200FFE701B0704782B00190019854216A
:1005500048430090FFE70098411E009110B1FFE76B
:1005600000BFF8E702B0704780B582B01421C4F232
:1005700002010191086840F0010008600A20FFF7BD
:10058000E3FF0199086820F00100086002B080BD17
:1005900080B543F64401C4F20201086840F480408B
:1005A000086043F60801C4F20101002008600868F1
:1005B000086008680860086808600868086043F612
:1005C0000041C4F20101086840F00200086043F6EF
:1005D0000C41C4F20101086840F00200086043F6D3
:1005E0000841C4F20101086840F0020008600720D9
:1005F000FFF792FF80BD000080B588B00020079013
:10060000FFF7E2FEFFF7C4FFFFF72AFF00F09CFAB6
:10061000FFE7FFF7A9FF40F26400C2F200000268A2
:100620000021BD2A0846C8BF0120FB2AB8BF01210E
:10063000084256D0FFE71421C4F202010591086870
:1006400040F08000086040F21442C4F202021068D8
:1006500020F002001060086820F0100008600868B0
:1006600020F020000860086820F04000086041F297
:100670003F10C0F60000FFF73DFF44F20040C4F217
:1006800000000068800600282AD5FFE7FFF708FF72
:10069000014640F26C00C2F200000170007831287F
:1006A0000AD1FFE740F26000C2F2000001210160C0
:1006B000006800F02BFA12E040F26C00C2F2000079
:1006C000007830280AD1FFE740F26000C2F2000053
:1006D00000210160006800F019FAFFE7FFE7FFE77B
:1006E00002E240F26400C2F20000026800218C2A9B
:1006F0000846C8BF0120C22AB8BF0121084256D00F
:10070000FFE71421C4F202010491086840F0800060
:10071000086040F21442C4F20202106840F0020085
:100720001060086820F010000860086820F02000C1
:100730000860086820F04000086041F24910C0F6E7
:100740000000FFF7D7FE44F20040C4F2000000684A
:10075000800600282AD5FFE7FFF7A2FE014640F2F7
:100760006C00C2F200000170007831280AD1FFE766
:1007700040F26000C2F2000001210160006800F058
:10078000C5F912E040F26C00C2F200000078302897
:100790000AD1FFE740F26000C2F2000000210160D0
:1007A000006800F0B3F9FFE7FFE7FFE79BE140F2E5
:1007B0006400C2F2000002680021642A0846C8BF33
:1007C0000120902AB8BF0121084256D0FFE714212A
:1007D000C4F202010391086840F08000086040F212
:1007E0001442C4F20202106840F00200106008686F
:1007F00040F010000860086820F0200008600868D9
:1008000020F04000086041F25310C0F60000FFF7EE
:1008100071FE44F20040C4F2000000688006002827
:100820002AD5FFE7FFF73CFE014640F26C00C2F21A
:1008300000000170007831280AD1FFE740F2600023
:10084000C2F2000001210160006800F05FF912E0CF
:1008500040F26C00C2F20000007830280AD1FFE7B5
:1008600040F26000C2F2000000210160006800F068
:100870004DF9FFE7FFE7FFE734E140F26400C2F221
:10088000000002680021502A0846C8BF0120652ADE
:10089000B8BF0121084256D0FFE71421C4F202017B
:1008A0000291086840F08000086040F21442C4F2EF
:1008B0000202106840F002001060086840F010006A
:1008C0000860086840F020000860086820F04000D8
:1008D000086041F25D10C0F60000FFF70BFE44F225
:1008E0000040C4F200000068800600282AD5FFE717
:1008F000FFF7D6FD014640F26C00C2F20000017025
:10090000007831280AD1FFE740F26000C2F200000F
:1009100001210160006800F0F9F812E040F26C007B
:10092000C2F20000007830280AD1FFE740F26000F0
:10093000C2F2000000210160006800F0E7F8FFE764
:10094000FFE7FFE7CDE040F26400C2F2000002687A
:1009500000213C2A0846C8BF01204F2AB8BF012108
:10096000084256D0FFE71421C4F202010191086841
:1009700040F08000086040F21442C4F202021068A5
:1009800040F002001060086840F01000086008683D
:1009900040F020000860086840F04000086041F224
:1009A0006710C0F60000FFF7A5FD44F20040C4F256
:1009B00000000068800600282AD5FFE7FFF770FDD9
:1009C000014640F26C00C2F200000170007831284C
:1009D0000AD1FFE740F26000C2F20000012101608D
:1009E000006800F093F812E040F26C00C2F20000E0
:1009F000007830280AD1FFE740F26000C2F2000020
:100A000000210160006800F081F8FFE7FFE7FFE7E1
:100A100066E040F26400C2F2000000683B285EDC41
:100A2000FFE71421C4F202010091086840F0800041
:100A3000086040F21442C4F20202106840F0020062
:100A40001060086840F010000860086840F020005E
:100A50000860086880F04000086040F20041C4F27D
:100A60000201086820F00300086041F23610C0F669
:100A70000000FFF73FFD44F20040C4F200000068B0
:100A8000800600282AD5FFE7FFF70AFD014640F25D
:100A90006C00C2F200000170007831280AD1FFE733
:100AA00040F26000C2F2000001210160006800F025
:100AB0002DF812E040F26C00C2F2000000783028FD
:100AC0000AD1FFE740F26000C2F20000002101609D
:100AD000006800F01BF8FFE7FFE7FFE7FFE7FFE72D
:100AE000FFE7FFE7FFE7FFE700200690FFE7069834
:100AF00048F29F61C0F20101884205DCFFE7FFE791
:100B0000069801300690F2E783E5000081B000907E
:100B10000098012809D1FFE740F20041C4F2020128
:100B2000086840F0010008600CE0009848B9FFE751
:100B300040F20041C4F20201086820F0030008609E
:100B4000FFE7FFE701B0704743F63001C4F202014E
:100B5000086840F0010008600021C4F20201086842
:100B600020F030000860086840F020000860086845
:100B700020F0C0000860086840F080000860202174
:100B8000C4F20201086820F470600860086840F44C
:100B9000E0600860086820F470400860086840F46D
:100BA000E040086043F64001C4F20201086840F4E6
:100BB0000030086044F20841C4F2000140F2836052
:100BC000086044F20C41C4F20001086840F00800DB
:100BD0000860086840F004000860086840F40050AD
:100BE000086070472DE9C04130B4DFF8A8C23CEA84
:100BF000111418BF3CEA131400F0F0801CEA111421
:100C000081EA030544EAD57418BF1CEA131500F005
:100C1000CB80A4EB050404F17F7404F500344FF09D
:100C2000004545EAC12145EAC32341EA505143EA60
:100C300052534FEAC0204FEAC222994208BF904265
:100C400000F0A0804FEA13650FF24816765D4FEA78
:100C5000134506FB05F7C7F1807706FB07F74FEA58
:100C6000D737A7FB03687642A7FB06CEC8F58038C6
:100C700038BFA8F1010807FB08E6A6FB028C4FF07D
:100C8000000EE6FB03CED8F100086FEA0C0C5CF115
:100C9000000C6FEA0E0E4EF1004EA6FB0C584FF002
:100CA0000007E6FB0E87A1FB08C6A0FB07CE16EBEC
:100CB0000E064FF0000545F10005E1FB076515F153
:100CC000E04E7EBFA4F580345FEA46066D4116F122
:100CD000800745F100054FEA172747EA05674FEA05
:100CE00015254FEA0666A6F1DE46B6F1805F20D9EB
:100CF000384605EBC47124F0010C01EB0C11BCF17A
:100D0000FE6F02D8F0BCBDE8008124425CBF01F553
:100D1000801E9EEAC47F02D4F0BCBDE8008124425C
:100D200000F13980A1F1C041F0BCBDE8004100F004
:100D3000EFB94FEAD02040EA41504FEAD1214FEAC3
:100D4000D22242EA43524FEAD323A7FB028607FB93
:100D5000036605FB02661EEA0E0F58BFA6EB00569F
:100D6000B6EB00564FEA520E4EEAC37E18EB0E0E5B
:100D700056EB530EBCD518EB02085E417F1C55F1B3
:100D80000005B5E74FF480154FF000074FF000065F
:100D90004FF00008ACE701F1C04101F000414FF015
:100DA0000000F0BCBDE800810CEA131511EA0C1F2D
:100DB00000D00CE013EA0C1F00F025804FF000007B
:100DC00081EA030101F00041F0BCBDE80081F0BC04
:100DD000BDE8004181EA030100F09AB9F0BCBDE82A
:100DE000004170B500F046F9097EFC3E00F007B8FE
:100DF0004FF0000081EA030101F00041704781EAF1
:100E0000030100F085B9F0BCBDE8004122494FF074
:100E100000007047FFFDFBF9F7F5F4F2F0EEEDEBA3
:100E2000E9E8E6E4E3E1E0DEDDDBDAD8D7D5D4D3E8
:100E3000D1D0CFCDCCCBCAC8C7C6C5C4C2C1C0BF34
:100E4000BEBDBCBBBAB9B8B7B6B5B4B3B2B1B0AF3A
:100E5000AEADACABAAA9A8A8A7A6A5A4A3A3A2A11E
:100E6000A09F9F9E9D9C9C9B9A99999897979695D9
:100E700095949393929191908F8F8E8E8D8C8C8B75
:100E80008B8A8989888887878685858484838382FD
:100E9000828181800000FF070000F87F4FEA410354
:100EA0004FEA5353A3F58063D3F11E03C8BFD3F1B8
:100EB000210C0CDD4FF0004242EAC12242EA5052BE
:100EC00032FA03FC8CEAE17CACEBE1707047102B4A
:100ED000C4BF0020704703F5787CBCF1FF3F04D00D
:100EE0006FF0004282EA2100704770B500F0C2F84E
:100EF0004992248000207047F2E7B0FA80F310FA9C
:100F000003F10AD0C3F11D0303F580634FEA0352D6
:100F10004FEA415002EBD12170474FF0000070477B
:100F200070B5DFF848C11CEA111E1EBF1CEA13157C
:100F30009EEA0C0F95EA0C0F00F06F8081EA030423
:100F40004EEAD47EAE4421EA4C1123EA4C1341F41C
:100F5000801143F48013AEF17F7EA1FB024CA0FB15
:100F60000365361955EB0C05A1FB034C4CF100034E
:100F7000A0FB021C16EB0C06654153F1000309426D
:100F800018BF46F0010613F4007F0BD14FEA03317E
:100F90004FEA053041EA155140EA165034036FF02C
:100FA00003020AE04FEAC3214FEAC52041EA555146
:100FB00040EA5650F4026FF0020202EB2E4201EBBF
:100FC000025585EACE710AD05FEA440C18BF24F0BE
:100FD000004450F1000041F1000120EAD47040F2D9
:100FE000FE7C624500D270BDA84214BF4FF0804421
:100FF0004FF04044002E08BF0024BEF1806FA8BF10
:10100000A1F1C041BDE8704080F2828001F1C04191
:1010100001F000414FF0000070470CEA13159EEA02
:101020000C0F18BF95EA0C0F06D081EA030E4FF0A3
:1010300000000EF0004170BD00F01CF88900013E78
:1010400000F007B800F009B84FEA430C5FEA5C5CB7
:1010500008D081EA030100F05BB84FEA410C5FEA77
:101060005C5CF6D102494FF0000070470000FF07BA
:101070000000F87F0EF1020E2EF0030E5EF8046BF6
:10108000364205D4012A43EB030515F5001F12D89B
:10109000012841EB010C1CF5001F0CD80ED14FEAC2
:1010A000D17C0CEB4C0C0CF1020C15F5001F08BFA9
:1010B0004CEBD37C04E04FF0080C01E04FEAD37C0A
:1010C0000CEB4C0526FA05F606F00706B6F1040C03
:1010D00006D20EEB860CBDE870404CF0010C604768
:1010E000DFE80CF0090B02024FF00041A1F50021EE
:1010F0004FF0000070BD19461046012851EB010465
:1011000018BFD4F5001484BF002001F0004170BD69
:101110000808A0F500114FEA31017047F1EE100AFE
:101120004FF6FF71C0F2C03120EA010040F040707C
:10113000E1EE100A704753544F5021210D0A004C24
:101140004556454C20410D0A004C4556454C204221
:101150000D0A004C4556454C20430D0A004C45569F
:10116000454C20440D0A004C4556454C20450D0A7F
:10117000000000008411000800000020700600003C
:04118000FC01000866
:0400000508000245A8
:00000001FF
